{"abi":[{"type":"constructor","inputs":[{"name":"_endpoint","type":"address","internalType":"contract ILayerZeroEndpointV2"},{"name":"dstEids","type":"uint32[]","internalType":"uint32[]"},{"name":"_messageFees","type":"uint256[]","internalType":"uint256[]"}],"stateMutability":"nonpayable"},{"type":"function","name":"assignJob","inputs":[{"name":"dstEid","type":"uint32","internalType":"uint32"},{"name":"sender","type":"address","internalType":"address"},{"name":"calldataSize","type":"uint256","internalType":"uint256"},{"name":"options","type":"bytes","internalType":"bytes"}],"outputs":[{"name":"price","type":"uint256","internalType":"uint256"}],"stateMutability":"view"},{"type":"function","name":"endpoint","inputs":[],"outputs":[{"name":"","type":"address","internalType":"contract ILayerZeroEndpointV2"}],"stateMutability":"view"},{"type":"function","name":"getFee","inputs":[{"name":"dstEid","type":"uint32","internalType":"uint32"},{"name":"","type":"address","internalType":"address"},{"name":"","type":"uint256","internalType":"uint256"},{"name":"","type":"bytes","internalType":"bytes"}],"outputs":[{"name":"price","type":"uint256","internalType":"uint256"}],"stateMutability":"view"},{"type":"function","name":"messageFees","inputs":[{"name":"","type":"uint32","internalType":"uint32"}],"outputs":[{"name":"","type":"uint256","internalType":"uint256"}],"stateMutability":"view"},{"type":"function","name":"owner","inputs":[],"outputs":[{"name":"","type":"address","internalType":"address"}],"stateMutability":"view"},{"type":"function","name":"renounceOwnership","inputs":[],"outputs":[],"stateMutability":"nonpayable"},{"type":"function","name":"setMessageFee","inputs":[{"name":"dstEid","type":"uint32","internalType":"uint32"},{"name":"messageFee","type":"uint256","internalType":"uint256"}],"outputs":[],"stateMutability":"nonpayable"},{"type":"function","name":"transferOwnership","inputs":[{"name":"newOwner","type":"address","internalType":"address"}],"outputs":[],"stateMutability":"nonpayable"},{"type":"function","name":"withdrawFee","inputs":[{"name":"lib","type":"address","internalType":"contract ISendLib"},{"name":"to","type":"address","internalType":"address"},{"name":"amount","type":"uint256","internalType":"uint256"}],"outputs":[],"stateMutability":"nonpayable"},{"type":"event","name":"MessageFeeSet","inputs":[{"name":"dstEid","type":"uint32","indexed":true,"internalType":"uint32"},{"name":"messageFee","type":"uint256","indexed":false,"internalType":"uint256"}],"anonymous":false},{"type":"event","name":"OwnershipTransferred","inputs":[{"name":"previousOwner","type":"address","indexed":true,"internalType":"address"},{"name":"newOwner","type":"address","indexed":true,"internalType":"address"}],"anonymous":false},{"type":"event","name":"Withdraw","inputs":[{"name":"lib","type":"address","indexed":true,"internalType":"contract ISendLib"},{"name":"to","type":"address","indexed":false,"internalType":"address"},{"name":"amount","type":"uint256","indexed":false,"internalType":"uint256"}],"anonymous":false},{"type":"error","name":"OwnableInvalidOwner","inputs":[{"name":"owner","type":"address","internalType":"address"}]},{"type":"error","name":"OwnableUnauthorizedAccount","inputs":[{"name":"account","type":"address","internalType":"address"}]}],"bytecode":{"object":"0x60a0604052346101fe576107a5803803806100198161021f565b9283398101906060818303126101fe5780516001600160a01b03811681036101fe5760208201516001600160401b0381116101fe5782019183601f840112156101fe57825161006f61006a82610258565b61021f565b9360208086848152019260051b820101908682116101fe57602001915b818310610202575050506040810151906001600160401b0382116101fe57019280601f850112156101fe5783516100c561006a82610258565b9460208087848152019260051b8201019283116101fe57602001905b8282106101ee5750505033156101db575f8054336001600160a01b0319821681178355604051939290916001600160a01b0316907f8be0079c531659141344cd1fd0a4f28419497f9722a3daafe3b4186f6b6457e09080a3608052815183510361019957505f5b8151811015610181578061015e6001928561026f565b5163ffffffff61016e838661026f565b51165f528260205260405f205501610148565b60405161050d90816102988239608051816101fc0152f35b62461bcd60e51b815260206004820152601d60248201527f53696d706c654578656375746f723a20696e76616c696420696e7075740000006044820152606490fd5b631e4fbdf760e01b5f525f60045260245ffd5b81518152602091820191016100e1565b5f80fd5b825163ffffffff811681036101fe5781526020928301920161008c565b6040519190601f01601f191682016001600160401b0381118382101761024457604052565b634e487b7160e01b5f52604160045260245ffd5b6001600160401b0381116102445760051b60200190565b80518210156102835760209160051b010190565b634e487b7160e01b5f52603260045260245ffdfe60806040526004361015610011575f80fd5b5f5f3560e01c80630b582b86146103555780631095b6d71461022b5780635e280f11146101e6578063709eb66414610167578063715018a61461018c578063717e8a42146101675780638da5cb5b14610140578063eb994a261461010b5763f2fde38b1461007d575f80fd5b34610108576020366003190112610108576004356001600160a01b03811690819003610106576100ab6104b1565b80156100f25781546001600160a01b03198116821783556001600160a01b03167f8be0079c531659141344cd1fd0a4f28419497f9722a3daafe3b4186f6b6457e08380a380f35b631e4fbdf760e01b82526004829052602482fd5b505b80fd5b503461010857602036600319011261010857604060209163ffffffff61012f6103b9565b168152600183522054604051908152f35b5034610108578060031936011261010857546040516001600160a01b039091168152602090f35b503461010857602061018461017b366103cc565b50505050610445565b604051908152f35b50346101085780600319360112610108576101a56104b1565b80546001600160a01b03198116825581906001600160a01b03167f8be0079c531659141344cd1fd0a4f28419497f9722a3daafe3b4186f6b6457e08280a380f35b50346101085780600319360112610108576040517f00000000000000000000000000000000000000000000000000000000000000006001600160a01b03168152602090f35b5034610351576060366003190112610351576004356001600160a01b03811690819003610351576024356001600160a01b038116810361035157604435906102716104b1565b823b1561035157604051637ecdf29160e11b81526001600160a01b0382166004820152602481018390525f8160448183885af18015610346576102f1575b50604080516001600160a01b0392909216825260208201929092527f9b1bfa7fa9ee420a16e124f794c35ac9f90472acc99140eb2f6447c714cad8eb9190a280f35b9190935067ffffffffffffffff8211610332577f9b1bfa7fa9ee420a16e124f794c35ac9f90472acc99140eb2f6447c714cad8eb916040525f9390916102af565b634e487b7160e01b5f52604160045260245ffd5b6040513d5f823e3d90fd5b5f80fd5b346103515760403660031901126103515761036e6103b9565b7e8bc5f8c6eca29aff4fa8316d3ba4e756d7c4dac75b5512ddbb3002b0c9fb08602063ffffffff602435936103a16104b1565b1692835f52600182528060405f2055604051908152a2005b6004359063ffffffff8216820361035157565b60806003198201126103515760043563ffffffff8116810361035157916024356001600160a01b038116810361035157916044359160643567ffffffffffffffff811161035157826023820112156103515780600401359267ffffffffffffffff84116103515760248483010111610351576024019190565b63ffffffff165f52600160205260405f205490811561046057565b60405162461bcd60e51b815260206004820152602360248201527f53696d706c654578656375746f723a20696e76616c69642064657374696e617460448201526234b7b760e91b6064820152608490fd5b5f546001600160a01b031633036104c457565b63118cdaa760e01b5f523360045260245ffdfea2646970667358221220cc6627d7c643fd6ff6cec6292f5cd8d2f5f9cba2efcd46a5f1582d1851915b6964736f6c634300081c0033","linkReferences":{}},"methodIdentifiers":{"assignJob(uint32,address,uint256,bytes)":"717e8a42","endpoint()":"5e280f11","getFee(uint32,address,uint256,bytes)":"709eb664","messageFees(uint32)":"eb994a26","owner()":"8da5cb5b","renounceOwnership()":"715018a6","setMessageFee(uint32,uint256)":"0b582b86","transferOwnership(address)":"f2fde38b","withdrawFee(address,address,uint256)":"1095b6d7"},"id":26}